{
  "transactions": [
    {
      "hash": "0x3288ad6bedcdaba72f1122ecfc2535b97adcede8dce27de54082e2a7ae08421d",
      "transactionType": "CALL",
      "contractName": null,
      "contractAddress": "0xb5906a91ef30da435ff13d27619bc6f76282d19d",
      "function": "publishCheckpoint((bytes,bytes,(uint64,uint64,bytes32[][],bytes32[])[],(bytes,bytes,uint64,uint64,bytes)),(uint64,bytes32[]),bytes8,(bytes32,uint256,uint256,uint64,uint64,bytes32,bytes))",
      "arguments": [
        "(0xa10126, 0xba8b370923f9ee9241bef10f3d28e189b89e6d72f860b671835dac0d9d73d2514852c6be04ce5621e6a3f7bc485cc52282c12432a2690ba2373f3158989d16b7, [(0, 1, [], [0x7294cb7614c9bc30d69a1ea520c48e82d1d5d50216596d4178e1e26be520d9ea])], (0x, 0x, 0, 0, 0x))",
        "(0, [])",
        "0x0000000000000000",
        "(0x6d6c21779ef147a886fbd629b0fa9fe6bf4de826e8cdc2bfe67c134ddfc725c1, 12884901889, 26959946667150639794667015087019630673637144422540572481103610249216, 0, 0, 0x0000000000000000000000000000000000000000000000000000000000000000, 0x823df30642534844c4b8ea9f60a53b2545d634b69b36d87d126baa8c760d930b88e47bdd430434321aabe07ac8a6aeb103df294c984c35147340a11d894e43c6)"
      ],
      "transaction": {
        "from": "0x46da9f369c9da462c4e385bc61b1d5b85b7791ab",
        "to": "0xb5906a91ef30da435ff13d27619bc6f76282d19d",
        "gas": "0x16cbfc",
        "value": "0x0",
        "input": "0x87ce4c61000000000000000000000000000000000000000000000000000000000000008000000000000000000000000000000000000000000000000000000000000003c000000000000000000000000000000000000000000000000000000000000000000000000000000000000000000000000000000000000000000000000000000420000000000000000000000000000000000000000000000000000000000000008000000000000000000000000000000000000000000000000000000000000000c0000000000000000000000000000000000000000000000000000000000000012000000000000000000000000000000000000000000000000000000000000002400000000000000000000000000000000000000000000000000000000000000003a1012600000000000000000000000000000000000000000000000000000000000000000000000000000000000000000000000000000000000000000000000040ba8b370923f9ee9241bef10f3d28e189b89e6d72f860b671835dac0d9d73d2514852c6be04ce5621e6a3f7bc485cc52282c12432a2690ba2373f3158989d16b70000000000000000000000000000000000000000000000000000000000000001000000000000000000000000000000000000000000000000000000000000002000000000000000000000000000000000000000000000000000000000000000000000000000000000000000000000000000000000000000000000000000000001000000000000000000000000000000000000000000000000000000000000008000000000000000000000000000000000000000000000000000000000000000a0000000000000000000000000000000000000000000000000000000000000000000000000000000000000000000000000000000000000000000000000000000017294cb7614c9bc30d69a1ea520c48e82d1d5d50216596d4178e1e26be520d9ea00000000000000000000000000000000000000000000000000000000000000a000000000000000000000000000000000000000000000000000000000000000c00000000000000000000000000000000000000000000000000000000000000000000000000000000000000000000000000000000000000000000000000000000000000000000000000000000000000000000000000000000000000000000000e00000000000000000000000000000000000000000000000000000000000000000000000000000000000000000000000000000000000000000000000000000000000000000000000000000000000000000000000000000000000000000000000000000000000000000000000000000000000000000000000000000000000000000000000000000000000000000000000000000000000000000000000000000004000000000000000000000000000000000000000000000000000000000000000006d6c21779ef147a886fbd629b0fa9fe6bf4de826e8cdc2bfe67c134ddfc725c10000000000000000000000000000000000000000000000000000000300000001000000010000000000000000000000000000000000000000000000000000000000000000000000000000000000000000000000000000000000000000000000000000000000000000000000000000000000000000000000000000000000000000000000000000000000000000000000000000000000000000000000000000000000000000000000000000000000000000000000000000000000000000000000e00000000000000000000000000000000000000000000000000000000000000040823df30642534844c4b8ea9f60a53b2545d634b69b36d87d126baa8c760d930b88e47bdd430434321aabe07ac8a6aeb103df294c984c35147340a11d894e43c6",
        "nonce": "0x4",
        "chainId": "0x14a34"
      },
      "additionalContracts": [],
      "isFixedGasLimit": false
    }
  ],
  "receipts": [
    {
      "status": "0x1",
      "cumulativeGasUsed": "0x221dbd",
      "logs": [
        {
          "address": "0xb5906a91ef30da435ff13d27619bc6f76282d19d",
          "topics": [
            "0xf3c0c2ea54ef61dfb0d613ef84aed75932a4296bfcf45ee501fe9e8137b8a340",
            "0x6d6c21779ef147a886fbd629b0fa9fe6bf4de826e8cdc2bfe67c134ddfc725c1",
            "0x6d6c21779ef147a886fbd629b0fa9fe6bf4de826e8cdc2bfe67c134ddfc725c1",
            "0x04d1321eed7b1fa36d93e89a2a2a889b4ffc405894654ea0d80fe367812aa390"
          ],
          "data": "0x",
          "blockHash": "0x9b909d1bafdb1447621fec2fcb7d6856508de326b44849c654714e656f3d7127",
          "blockNumber": "0x28896fa",
          "blockTimestamp": "0x6a248cd4",
          "transactionHash": "0x3288ad6bedcdaba72f1122ecfc2535b97adcede8dce27de54082e2a7ae08421d",
          "transactionIndex": "0x11",
          "logIndex": "0x60",
          "removed": false
        },
        {
          "address": "0xb5906a91ef30da435ff13d27619bc6f76282d19d",
          "topics": [
            "0xdc73717d728bcfa015e8117438a65319aa06e979ca324afa6e1ea645c28ea15d",
            "0x6d6c21779ef147a886fbd629b0fa9fe6bf4de826e8cdc2bfe67c134ddfc725c1"
          ],
          "data": "0x",
          "blockHash": "0x9b909d1bafdb1447621fec2fcb7d6856508de326b44849c654714e656f3d7127",
          "blockNumber": "0x28896fa",
          "blockTimestamp": "0x6a248cd4",
          "transactionHash": "0x3288ad6bedcdaba72f1122ecfc2535b97adcede8dce27de54082e2a7ae08421d",
          "transactionIndex": "0x11",
          "logIndex": "0x61",
          "removed": false
        },
        {
          "address": "0xb5906a91ef30da435ff13d27619bc6f76282d19d",
          "topics": [
            "0x156942b408823cb05a16027962ea485fa7171d99779ee04094280b2569482426",
            "0x6d6c21779ef147a886fbd629b0fa9fe6bf4de826e8cdc2bfe67c134ddfc725c1",
            "0x6d6c21779ef147a886fbd629b0fa9fe6bf4de826e8cdc2bfe67c134ddfc725c1",
            "0x04d1321eed7b1fa36d93e89a2a2a889b4ffc405894654ea0d80fe367812aa390"
          ],
          "data": "0x00000000000000000000000046da9f369c9da462c4e385bc61b1d5b85b7791ab00000000000000000000000000000000000000000000000000000000000000000000000000000000000000000000000000000000000000000000000000000001000000000000000000000000000000000000000000000000000000000000000100000000000000000000000000000000000000000000000000000000000000e00000000000000000000000000000000000000000000000000000000000000000000000000000000000000000000000000000000000000000000000000000012000000000000000000000000000000000000000000000000000000000000000017294cb7614c9bc30d69a1ea520c48e82d1d5d50216596d4178e1e26be520d9ea0000000000000000000000000000000000000000000000000000000000000000",
          "blockHash": "0x9b909d1bafdb1447621fec2fcb7d6856508de326b44849c654714e656f3d7127",
          "blockNumber": "0x28896fa",
          "blockTimestamp": "0x6a248cd4",
          "transactionHash": "0x3288ad6bedcdaba72f1122ecfc2535b97adcede8dce27de54082e2a7ae08421d",
          "transactionIndex": "0x11",
          "logIndex": "0x62",
          "removed": false
        }
      ],
      "logsBloom": "0x000000000000000000000000000000000000000000000001000000000000000000000400000000000000000000000000000000000000000000000000000000000000020008000008000000000000000000000000000000000000000000000000000000200000000000000000000000000001000000000000000080000000400000000000000000000000000000000400000000000000000000000000080000000000000000000000000000000000000000000000000000010000000000080000000000000000800000400100000000000000000000000000000000000000000000000000000000000c0000000000000000000000000000000000000000000000",
      "type": "0x2",
      "transactionHash": "0x3288ad6bedcdaba72f1122ecfc2535b97adcede8dce27de54082e2a7ae08421d",
      "transactionIndex": "0x11",
      "blockHash": "0x9b909d1bafdb1447621fec2fcb7d6856508de326b44849c654714e656f3d7127",
      "blockNumber": "0x28896fa",
      "gasUsed": "0x4a413",
      "effectiveGasPrice": "0x5b8d80",
      "blobGasUsed": "0x24b1e",
      "from": "0x46da9f369c9da462c4e385bc61b1d5b85b7791ab",
      "to": "0xb5906a91ef30da435ff13d27619bc6f76282d19d",
      "contractAddress": null,
      "daFootprintGasScalar": "0x1be",
      "l1BaseFeeScalar": "0x44d",
      "l1BlobBaseFee": "0x4025eda",
      "l1BlobBaseFeeScalar": "0xa118b",
      "l1Fee": "0x50185d900",
      "l1GasPrice": "0x4192adf4",
      "l1GasUsed": "0x1512"
    }
  ],
  "libraries": [],
  "pending": [],
  "returns": {},
  "timestamp": 1780780244825,
  "chain": 84532,
  "commit": "1a2ae48"
}